{
  "contractName": "register",
  "abi": [
    {
      "inputs": [
        {
          "internalType": "address",
          "name": "username",
          "type": "address"
        },
        {
          "internalType": "uint256",
          "name": "password",
          "type": "uint256"
        }
      ],
      "name": "registeruser",
      "outputs": [],
      "stateMutability": "nonpayable",
      "type": "function"
    },
    {
      "inputs": [],
      "name": "viewusers",
      "outputs": [
        {
          "internalType": "address[]",
          "name": "",
          "type": "address[]"
        },
        {
          "internalType": "uint256[]",
          "name": "",
          "type": "uint256[]"
        }
      ],
      "stateMutability": "view",
      "type": "function",
      "constant": true
    },
    {
      "inputs": [
        {
          "internalType": "address",
          "name": "username",
          "type": "address"
        },
        {
          "internalType": "uint256",
          "name": "password",
          "type": "uint256"
        }
      ],
      "name": "loginuser",
      "outputs": [
        {
          "internalType": "bool",
          "name": "",
          "type": "bool"
        }
      ],
      "stateMutability": "view",
      "type": "function",
      "constant": true
    },
    {
      "inputs": [
        {
          "internalType": "address",
          "name": "username",
          "type": "address"
        },
        {
          "internalType": "uint256",
          "name": "password",
          "type": "uint256"
        },
        {
          "internalType": "string",
          "name": "email",
          "type": "string"
        }
      ],
      "name": "registerbiduser",
      "outputs": [],
      "stateMutability": "nonpayable",
      "type": "function"
    },
    {
      "inputs": [],
      "name": "viewbidusers",
      "outputs": [
        {
          "internalType": "address[]",
          "name": "",
          "type": "address[]"
        },
        {
          "internalType": "uint256[]",
          "name": "",
          "type": "uint256[]"
        },
        {
          "internalType": "string[]",
          "name": "",
          "type": "string[]"
        }
      ],
      "stateMutability": "view",
      "type": "function",
      "constant": true
    },
    {
      "inputs": [
        {
          "internalType": "address",
          "name": "username",
          "type": "address"
        },
        {
          "internalType": "uint256",
          "name": "password",
          "type": "uint256"
        }
      ],
      "name": "loginbiduser",
      "outputs": [
        {
          "internalType": "bool",
          "name": "",
          "type": "bool"
        }
      ],
      "stateMutability": "view",
      "type": "function",
      "constant": true
    }
  ],
  "bytecode": "0x608060405234801561001057600080fd5b506112d1806100206000396000f3fe608060405234801561001057600080fd5b50600436106100625760003560e01c80630384385314610067578063249b64c814610097578063a46dec8b146100b3578063ced460bd146100d2578063da83065114610102578063ffd995f214610122575b600080fd5b610081600480360381019061007c91906109ac565b61013e565b60405161008e9190610a07565b60405180910390f35b6100b160048036038101906100ac9190610b68565b610271565b005b6100bb6103e6565b6040516100c9929190610d53565b60405180910390f35b6100ec60048036038101906100e791906109ac565b6104cf565b6040516100f99190610a07565b60405180910390f35b61010a610602565b60405161011993929190610ecb565b60405180910390f35b61013c600480360381019061013791906109ac565b6107c5565b005b60008060009050600660008573ffffffffffffffffffffffffffffffffffffffff1673ffffffffffffffffffffffffffffffffffffffff16815260200190815260200160002060009054906101000a900460ff1661019b57600080fd5b600090505b60028054905081101561026557600281815481106101c1576101c0610f17565b5b9060005260206000200160009054906101000a900473ffffffffffffffffffffffffffffffffffffffff1673ffffffffffffffffffffffffffffffffffffffff168473ffffffffffffffffffffffffffffffffffffffff1614801561024357506003818154811061023557610234610f17565b5b906000526020600020015483145b1561025257600191505061026b565b808061025d90610f75565b9150506101a0565b60009150505b92915050565b600660008473ffffffffffffffffffffffffffffffffffffffff1673ffffffffffffffffffffffffffffffffffffffff16815260200190815260200160002060009054906101000a900460ff16156102c857600080fd5b6001600660008573ffffffffffffffffffffffffffffffffffffffff1673ffffffffffffffffffffffffffffffffffffffff16815260200190815260200160002060006101000a81548160ff0219169083151502179055506002839080600181540180825580915050600190039060005260206000200160009091909190916101000a81548173ffffffffffffffffffffffffffffffffffffffff021916908373ffffffffffffffffffffffffffffffffffffffff16021790555060038290806001815401808255809150506001900390600052602060002001600090919091909150556004819080600181540180825580915050600190039060005260206000200160009091909190915090816103e091906111c9565b50505050565b606080600060018180548060200260200160405190810160405280929190818152602001828054801561046e57602002820191906000526020600020905b8160009054906101000a900473ffffffffffffffffffffffffffffffffffffffff1673ffffffffffffffffffffffffffffffffffffffff1681526020019060010190808311610424575b50505050509150808054806020026020016040519081016040528092919081815260200182805480156104c057602002820191906000526020600020905b8154815260200190600101908083116104ac575b50505050509050915091509091565b60008060009050600560008573ffffffffffffffffffffffffffffffffffffffff1673ffffffffffffffffffffffffffffffffffffffff16815260200190815260200160002060009054906101000a900460ff1661052c57600080fd5b600090505b6000805490508110156105f6576000818154811061055257610551610f17565b5b9060005260206000200160009054906101000a900473ffffffffffffffffffffffffffffffffffffffff1673ffffffffffffffffffffffffffffffffffffffff168473ffffffffffffffffffffffffffffffffffffffff161480156105d45750600181815481106105c6576105c5610f17565b5b906000526020600020015483145b156105e35760019150506105fc565b80806105ee90610f75565b915050610531565b60009150505b92915050565b60608060606002600360048280548060200260200160405190810160405280929190818152602001828054801561068e57602002820191906000526020600020905b8160009054906101000a900473ffffffffffffffffffffffffffffffffffffffff1673ffffffffffffffffffffffffffffffffffffffff1681526020019060010190808311610644575b50505050509250818054806020026020016040519081016040528092919081815260200182805480156106e057602002820191906000526020600020905b8154815260200190600101908083116106cc575b5050505050915080805480602002602001604051908101604052809291908181526020016000905b828210156107b457838290600052602060002001805461072790610fec565b80601f016020809104026020016040519081016040528092919081815260200182805461075390610fec565b80156107a05780601f10610775576101008083540402835291602001916107a0565b820191906000526020600020905b81548152906001019060200180831161078357829003601f168201915b505050505081526020019060010190610708565b505050509050925092509250909192565b600560008373ffffffffffffffffffffffffffffffffffffffff1673ffffffffffffffffffffffffffffffffffffffff16815260200190815260200160002060009054906101000a900460ff161561081c57600080fd5b6001600560008473ffffffffffffffffffffffffffffffffffffffff1673ffffffffffffffffffffffffffffffffffffffff16815260200190815260200160002060006101000a81548160ff0219169083151502179055506000829080600181540180825580915050600190039060005260206000200160009091909190916101000a81548173ffffffffffffffffffffffffffffffffffffffff021916908373ffffffffffffffffffffffffffffffffffffffff16021790555060018190806001815401808255809150506001900390600052602060002001600090919091909150555050565b6000604051905090565b600080fd5b600080fd5b600073ffffffffffffffffffffffffffffffffffffffff82169050919050565b600061094382610918565b9050919050565b61095381610938565b811461095e57600080fd5b50565b6000813590506109708161094a565b92915050565b6000819050919050565b61098981610976565b811461099457600080fd5b50565b6000813590506109a681610980565b92915050565b600080604083850312156109c3576109c261090e565b5b60006109d185828601610961565b92505060206109e285828601610997565b9150509250929050565b60008115159050919050565b610a01816109ec565b82525050565b6000602082019050610a1c60008301846109f8565b92915050565b600080fd5b600080fd5b6000601f19601f8301169050919050565b7f4e487b7100000000000000000000000000000000000000000000000000000000600052604160045260246000fd5b610a7582610a2c565b810181811067ffffffffffffffff82111715610a9457610a93610a3d565b5b80604052505050565b6000610aa7610904565b9050610ab38282610a6c565b919050565b600067ffffffffffffffff821115610ad357610ad2610a3d565b5b610adc82610a2c565b9050602081019050919050565b82818337600083830152505050565b6000610b0b610b0684610ab8565b610a9d565b905082815260208101848484011115610b2757610b26610a27565b5b610b32848285610ae9565b509392505050565b600082601f830112610b4f57610b4e610a22565b5b8135610b5f848260208601610af8565b91505092915050565b600080600060608486031215610b8157610b8061090e565b5b6000610b8f86828701610961565b9350506020610ba086828701610997565b925050604084013567ffffffffffffffff811115610bc157610bc0610913565b5b610bcd86828701610b3a565b9150509250925092565b600081519050919050565b600082825260208201905092915050565b6000819050602082019050919050565b610c0c81610938565b82525050565b6000610c1e8383610c03565b60208301905092915050565b6000602082019050919050565b6000610c4282610bd7565b610c4c8185610be2565b9350610c5783610bf3565b8060005b83811015610c88578151610c6f8882610c12565b9750610c7a83610c2a565b925050600181019050610c5b565b5085935050505092915050565b600081519050919050565b600082825260208201905092915050565b6000819050602082019050919050565b610cca81610976565b82525050565b6000610cdc8383610cc1565b60208301905092915050565b6000602082019050919050565b6000610d0082610c95565b610d0a8185610ca0565b9350610d1583610cb1565b8060005b83811015610d46578151610d2d8882610cd0565b9750610d3883610ce8565b925050600181019050610d19565b5085935050505092915050565b60006040820190508181036000830152610d6d8185610c37565b90508181036020830152610d818184610cf5565b90509392505050565b600081519050919050565b600082825260208201905092915050565b6000819050602082019050919050565b600081519050919050565b600082825260208201905092915050565b60005b83811015610df0578082015181840152602081019050610dd5565b60008484015250505050565b6000610e0782610db6565b610e118185610dc1565b9350610e21818560208601610dd2565b610e2a81610a2c565b840191505092915050565b6000610e418383610dfc565b905092915050565b6000602082019050919050565b6000610e6182610d8a565b610e6b8185610d95565b935083602082028501610e7d85610da6565b8060005b85811015610eb95784840389528151610e9a8582610e35565b9450610ea583610e49565b925060208a01995050600181019050610e81565b50829750879550505050505092915050565b60006060820190508181036000830152610ee58186610c37565b90508181036020830152610ef98185610cf5565b90508181036040830152610f0d8184610e56565b9050949350505050565b7f4e487b7100000000000000000000000000000000000000000000000000000000600052603260045260246000fd5b7f4e487b7100000000000000000000000000000000000000000000000000000000600052601160045260246000fd5b6000610f8082610976565b91507fffffffffffffffffffffffffffffffffffffffffffffffffffffffffffffffff8203610fb257610fb1610f46565b5b600182019050919050565b7f4e487b7100000000000000000000000000000000000000000000000000000000600052602260045260246000fd5b6000600282049050600182168061100457607f821691505b60208210810361101757611016610fbd565b5b50919050565b60008190508160005260206000209050919050565b60006020601f8301049050919050565b600082821b905092915050565b60006008830261107f7fffffffffffffffffffffffffffffffffffffffffffffffffffffffffffffffff82611042565b6110898683611042565b95508019841693508086168417925050509392505050565b6000819050919050565b60006110c66110c16110bc84610976565b6110a1565b610976565b9050919050565b6000819050919050565b6110e0836110ab565b6110f46110ec826110cd565b84845461104f565b825550505050565b600090565b6111096110fc565b6111148184846110d7565b505050565b5b818110156111385761112d600082611101565b60018101905061111a565b5050565b601f82111561117d5761114e8161101d565b61115784611032565b81016020851015611166578190505b61117a61117285611032565b830182611119565b50505b505050565b600082821c905092915050565b60006111a060001984600802611182565b1980831691505092915050565b60006111b9838361118f565b9150826002028217905092915050565b6111d282610db6565b67ffffffffffffffff8111156111eb576111ea610a3d565b5b6111f58254610fec565b61120082828561113c565b600060209050601f8311600181146112335760008415611221578287015190505b61122b85826111ad565b865550611293565b601f1984166112418661101d565b60005b8281101561126957848901518255600182019150602085019450602081019050611244565b868310156112865784890151611282601f89168261118f565b8355505b6001600288020188555050505b50505050505056fea2646970667358221220c806c6da4c9159c19ab3b9d8601d8aad0cb38d896566e0a145d3a3bec985edf864736f6c63430008110033",
  "immutableReferences": {},
  "source": "// SPDX-License-Identifier: MIT\npragma solidity >=0.4.22 <0.9.0;\n\ncontract register {\n\n  address[] _usernames;\n  uint[] _passwords;\n\n  address[] _bidusernames;\n  uint[] _bidpasswords;\n  string[] _bidemails;\n\n  mapping(address=>bool) users;\n  mapping(address=>bool) bidders;\n\n  function registeruser(address username,uint password) public{\n\n    require(!users[username]);\n\n    users[username]=true;\n    _usernames.push(username);\n    _passwords.push(password);\n  }\n\n  function viewusers() public view returns(address[] memory,uint[] memory){\n    return(_usernames,_passwords);\n  }\n\n  function loginuser(address username,uint password) public view returns(bool){\n    uint i=0;\n\n    require(users[username]);\n\n    for(i=0;i<_usernames.length;i++){\n      if(username==_usernames[i] && password==_passwords[i]){\n        return true;\n      }\n    }\n    return false;\n  }\n\n  function registerbiduser(address username,uint password,string memory email) public{\n\n    require(!bidders[username]);\n\n    bidders[username]=true;\n    _bidusernames.push(username);\n    _bidpasswords.push(password);\n    _bidemails.push(email);\n\n  }\n  \n  function viewbidusers() public view returns(address[] memory ,uint[] memory,string[] memory){\n    return(_bidusernames,_bidpasswords,_bidemails);\n  }\n\n  function loginbiduser(address username,uint password) public view returns(bool){\n    uint i=0;\n\n    require(bidders[username]);\n    for(i=0;i<_bidusernames.length;i++){\n      if(username==_bidusernames[i] && password==_bidpasswords[i]){\n        return true;\n      }\n    }\n    return false;\n  }\n}\n",
  "sourcePath": "/Users/ms/Desktop/Smart-Tender-Management-System/contracts/register.sol",
  "compiler": {
    "name": "solc",
    "version": "0.8.17+commit.8df45f5f.Emscripten.clang"
  },
  "schemaVersion": "3.4.8",
  "updatedAt": "2023-01-28T09:54:49.529Z",
  "networkType": "ethereum",
  "devdoc": {
    "kind": "dev",
    "methods": {},
    "version": 1
  },
  "userdoc": {
    "kind": "user",
    "methods": {},
    "version": 1
  }
}