{
  "contractName": "tender",
  "abi": [
    {
      "inputs": [
        {
          "internalType": "address",
          "name": "tenderowner",
          "type": "address"
        },
        {
          "internalType": "uint256",
          "name": "tenderid",
          "type": "uint256"
        },
        {
          "internalType": "string",
          "name": "tenderinfo",
          "type": "string"
        }
      ],
      "name": "createtender",
      "outputs": [],
      "stateMutability": "nonpayable",
      "type": "function"
    },
    {
      "inputs": [],
      "name": "viewtenders",
      "outputs": [
        {
          "internalType": "address[]",
          "name": "",
          "type": "address[]"
        },
        {
          "internalType": "uint256[]",
          "name": "",
          "type": "uint256[]"
        },
        {
          "internalType": "string[]",
          "name": "",
          "type": "string[]"
        },
        {
          "internalType": "bool[]",
          "name": "",
          "type": "bool[]"
        },
        {
          "internalType": "address[]",
          "name": "",
          "type": "address[]"
        }
      ],
      "stateMutability": "view",
      "type": "function",
      "constant": true
    },
    {
      "inputs": [
        {
          "internalType": "uint256",
          "name": "tenderid",
          "type": "uint256"
        }
      ],
      "name": "gettender",
      "outputs": [
        {
          "internalType": "address",
          "name": "",
          "type": "address"
        },
        {
          "internalType": "uint256",
          "name": "",
          "type": "uint256"
        },
        {
          "internalType": "string",
          "name": "",
          "type": "string"
        },
        {
          "internalType": "bool",
          "name": "",
          "type": "bool"
        },
        {
          "internalType": "address",
          "name": "",
          "type": "address"
        }
      ],
      "stateMutability": "view",
      "type": "function",
      "constant": true
    },
    {
      "inputs": [
        {
          "internalType": "uint256",
          "name": "bidtenderid",
          "type": "uint256"
        },
        {
          "internalType": "uint256",
          "name": "bidamount",
          "type": "uint256"
        },
        {
          "internalType": "string",
          "name": "bidemail",
          "type": "string"
        }
      ],
      "name": "bidtender",
      "outputs": [],
      "stateMutability": "nonpayable",
      "type": "function"
    },
    {
      "inputs": [],
      "name": "viewbids",
      "outputs": [
        {
          "internalType": "uint256[]",
          "name": "",
          "type": "uint256[]"
        },
        {
          "internalType": "uint256[]",
          "name": "",
          "type": "uint256[]"
        },
        {
          "internalType": "string[]",
          "name": "",
          "type": "string[]"
        },
        {
          "internalType": "address[]",
          "name": "",
          "type": "address[]"
        }
      ],
      "stateMutability": "view",
      "type": "function",
      "constant": true
    },
    {
      "inputs": [
        {
          "internalType": "uint256",
          "name": "tenderid",
          "type": "uint256"
        },
        {
          "internalType": "address",
          "name": "bidowner",
          "type": "address"
        }
      ],
      "name": "allocatetender",
      "outputs": [],
      "stateMutability": "nonpayable",
      "type": "function"
    }
  ],
  "bytecode": "0x608060405234801561001057600080fd5b5061188e806100206000396000f3fe608060405234801561001057600080fd5b50600436106100625760003560e01c80630feb8300146100675780635145c3a8146100835780638be7d7651461009f578063a0e821dc146100c0578063c1dd503d146100dc578063f87cc2c014610110575b600080fd5b610081600480360381019061007c9190610dfc565b610132565b005b61009d60048036038101906100989190610ec9565b610221565b005b6100a7610366565b6040516100b794939291906111c6565b60405180910390f35b6100da60048036038101906100d59190611227565b610581565b005b6100f660048036038101906100f19190611296565b610746565b604051610107959493929190611346565b60405180910390f35b61011861099d565b60405161012995949392919061145e565b60405180910390f35b600683908060018154018082558091505060019003906000526020600020016000909190919091505560088290806001815401808255809150506001900390600052602060002001600090919091909150556007819080600181540180825580915050600190039060005260206000200160009091909190915090816101b891906116e0565b506005339080600181540180825580915050600190039060005260206000200160009091909190916101000a81548173ffffffffffffffffffffffffffffffffffffffff021916908373ffffffffffffffffffffffffffffffffffffffff160217905550505050565b600b600083815260200190815260200160002060009054906101000a900460ff161561024c57600080fd5b60006001600b600085815260200190815260200160002060006101000a81548160ff021916908315150217905550600090505b60018054905081101561036157600181815481106102a05761029f6117b2565b5b9060005260206000200154830361034e576000600382815481106102c7576102c66117b2565b5b90600052602060002090602091828204019190066101000a81548160ff0219169083151502179055508160048281548110610305576103046117b2565b5b9060005260206000200160006101000a81548173ffffffffffffffffffffffffffffffffffffffff021916908373ffffffffffffffffffffffffffffffffffffffff1602179055505b808061035990611810565b91505061027f565b505050565b6060806060806006600860076005838054806020026020016040519081016040528092919081815260200182805480156103bf57602002820191906000526020600020905b8154815260200190600101908083116103ab575b505050505093508280548060200260200160405190810160405280929190818152602001828054801561041157602002820191906000526020600020905b8154815260200190600101908083116103fd575b5050505050925081805480602002602001604051908101604052809291908181526020016000905b828210156104e557838290600052602060002001805461045890611503565b80601f016020809104026020016040519081016040528092919081815260200182805461048490611503565b80156104d15780601f106104a6576101008083540402835291602001916104d1565b820191906000526020600020905b8154815290600101906020018083116104b457829003601f168201915b505050505081526020019060010190610439565b5050505091508080548060200260200160405190810160405280929190818152602001828054801561056c57602002820191906000526020600020905b8160009054906101000a900473ffffffffffffffffffffffffffffffffffffffff1673ffffffffffffffffffffffffffffffffffffffff1681526020019060010190808311610522575b50505050509050935093509350935090919293565b6009600083815260200190815260200160002060009054906101000a900460ff16156105ac57600080fd5b60016009600084815260200190815260200160002060006101000a81548160ff0219169083151502179055506000839080600181540180825580915050600190039060005260206000200160009091909190916101000a81548173ffffffffffffffffffffffffffffffffffffffff021916908373ffffffffffffffffffffffffffffffffffffffff160217905550600182908060018154018082558091505060019003906000526020600020016000909190919091505560028190806001815401808255809150506001900390600052602060002001600090919091909150908161069891906116e0565b506003600190806001815401808255809150506001900390600052602060002090602091828204019190069091909190916101000a81548160ff0219169083151502179055506004839080600181540180825580915050600190039060005260206000200160009091909190916101000a81548173ffffffffffffffffffffffffffffffffffffffff021916908373ffffffffffffffffffffffffffffffffffffffff160217905550505050565b60008060606000806009600087815260200190815260200160002060009054906101000a900460ff1661077857600080fd5b60005b60018054905081101561094b576001818154811061079c5761079b6117b2565b5b9060005260206000200154870361093857600081815481106107c1576107c06117b2565b5b9060005260206000200160009054906101000a900473ffffffffffffffffffffffffffffffffffffffff1660018281548110610800576107ff6117b2565b5b90600052602060002001546002838154811061081f5761081e6117b2565b5b906000526020600020016003848154811061083d5761083c6117b2565b5b90600052602060002090602091828204019190069054906101000a900460ff1660048581548110610871576108706117b2565b5b9060005260206000200160009054906101000a900473ffffffffffffffffffffffffffffffffffffffff168280546108a890611503565b80601f01602080910402602001604051908101604052809291908181526020018280546108d490611503565b80156109215780601f106108f657610100808354040283529160200191610921565b820191906000526020600020905b81548152906001019060200180831161090457829003601f168201915b505050505092509550955095509550955050610994565b808061094390611810565b91505061077b565b33600080336040518060400160405280600281526020017f4e41000000000000000000000000000000000000000000000000000000000000815250919095509550955095509550505b91939590929450565b60608060608060606000600160026003600484805480602002602001604051908101604052809291908181526020018280548015610a3057602002820191906000526020600020905b8160009054906101000a900473ffffffffffffffffffffffffffffffffffffffff1673ffffffffffffffffffffffffffffffffffffffff16815260200190600101908083116109e6575b5050505050945083805480602002602001604051908101604052809291908181526020018280548015610a8257602002820191906000526020600020905b815481526020019060010190808311610a6e575b5050505050935082805480602002602001604051908101604052809291908181526020016000905b82821015610b56578382906000526020600020018054610ac990611503565b80601f0160208091040260200160405190810160405280929190818152602001828054610af590611503565b8015610b425780601f10610b1757610100808354040283529160200191610b42565b820191906000526020600020905b815481529060010190602001808311610b2557829003601f168201915b505050505081526020019060010190610aaa565b50505050925081805480602002602001604051908101604052809291908181526020018280548015610bcc57602002820191906000526020600020906000905b82829054906101000a900460ff16151581526020019060010190602082600001049283019260010382029150808411610b965790505b5050505050915080805480602002602001604051908101604052809291908181526020018280548015610c5457602002820191906000526020600020905b8160009054906101000a900473ffffffffffffffffffffffffffffffffffffffff1673ffffffffffffffffffffffffffffffffffffffff1681526020019060010190808311610c0a575b50505050509050945094509450945094509091929394565b6000604051905090565b600080fd5b600080fd5b6000819050919050565b610c9381610c80565b8114610c9e57600080fd5b50565b600081359050610cb081610c8a565b92915050565b600080fd5b600080fd5b6000601f19601f8301169050919050565b7f4e487b7100000000000000000000000000000000000000000000000000000000600052604160045260246000fd5b610d0982610cc0565b810181811067ffffffffffffffff82111715610d2857610d27610cd1565b5b80604052505050565b6000610d3b610c6c565b9050610d478282610d00565b919050565b600067ffffffffffffffff821115610d6757610d66610cd1565b5b610d7082610cc0565b9050602081019050919050565b82818337600083830152505050565b6000610d9f610d9a84610d4c565b610d31565b905082815260208101848484011115610dbb57610dba610cbb565b5b610dc6848285610d7d565b509392505050565b600082601f830112610de357610de2610cb6565b5b8135610df3848260208601610d8c565b91505092915050565b600080600060608486031215610e1557610e14610c76565b5b6000610e2386828701610ca1565b9350506020610e3486828701610ca1565b925050604084013567ffffffffffffffff811115610e5557610e54610c7b565b5b610e6186828701610dce565b9150509250925092565b600073ffffffffffffffffffffffffffffffffffffffff82169050919050565b6000610e9682610e6b565b9050919050565b610ea681610e8b565b8114610eb157600080fd5b50565b600081359050610ec381610e9d565b92915050565b60008060408385031215610ee057610edf610c76565b5b6000610eee85828601610ca1565b9250506020610eff85828601610eb4565b9150509250929050565b600081519050919050565b600082825260208201905092915050565b6000819050602082019050919050565b610f3e81610c80565b82525050565b6000610f508383610f35565b60208301905092915050565b6000602082019050919050565b6000610f7482610f09565b610f7e8185610f14565b9350610f8983610f25565b8060005b83811015610fba578151610fa18882610f44565b9750610fac83610f5c565b925050600181019050610f8d565b5085935050505092915050565b600081519050919050565b600082825260208201905092915050565b6000819050602082019050919050565b600081519050919050565b600082825260208201905092915050565b60005b8381101561102d578082015181840152602081019050611012565b60008484015250505050565b600061104482610ff3565b61104e8185610ffe565b935061105e81856020860161100f565b61106781610cc0565b840191505092915050565b600061107e8383611039565b905092915050565b6000602082019050919050565b600061109e82610fc7565b6110a88185610fd2565b9350836020820285016110ba85610fe3565b8060005b858110156110f657848403895281516110d78582611072565b94506110e283611086565b925060208a019950506001810190506110be565b50829750879550505050505092915050565b600081519050919050565b600082825260208201905092915050565b6000819050602082019050919050565b61113d81610e8b565b82525050565b600061114f8383611134565b60208301905092915050565b6000602082019050919050565b600061117382611108565b61117d8185611113565b935061118883611124565b8060005b838110156111b95781516111a08882611143565b97506111ab8361115b565b92505060018101905061118c565b5085935050505092915050565b600060808201905081810360008301526111e08187610f69565b905081810360208301526111f48186610f69565b905081810360408301526112088185611093565b9050818103606083015261121c8184611168565b905095945050505050565b6000806000606084860312156112405761123f610c76565b5b600061124e86828701610eb4565b935050602061125f86828701610ca1565b925050604084013567ffffffffffffffff8111156112805761127f610c7b565b5b61128c86828701610dce565b9150509250925092565b6000602082840312156112ac576112ab610c76565b5b60006112ba84828501610ca1565b91505092915050565b6112cc81610e8b565b82525050565b6112db81610c80565b82525050565b600082825260208201905092915050565b60006112fd82610ff3565b61130781856112e1565b935061131781856020860161100f565b61132081610cc0565b840191505092915050565b60008115159050919050565b6113408161132b565b82525050565b600060a08201905061135b60008301886112c3565b61136860208301876112d2565b818103604083015261137a81866112f2565b90506113896060830185611337565b61139660808301846112c3565b9695505050505050565b600081519050919050565b600082825260208201905092915050565b6000819050602082019050919050565b6113d58161132b565b82525050565b60006113e783836113cc565b60208301905092915050565b6000602082019050919050565b600061140b826113a0565b61141581856113ab565b9350611420836113bc565b8060005b8381101561145157815161143888826113db565b9750611443836113f3565b925050600181019050611424565b5085935050505092915050565b600060a08201905081810360008301526114788188611168565b9050818103602083015261148c8187610f69565b905081810360408301526114a08186611093565b905081810360608301526114b48185611400565b905081810360808301526114c88184611168565b90509695505050505050565b7f4e487b7100000000000000000000000000000000000000000000000000000000600052602260045260246000fd5b6000600282049050600182168061151b57607f821691505b60208210810361152e5761152d6114d4565b5b50919050565b60008190508160005260206000209050919050565b60006020601f8301049050919050565b600082821b905092915050565b6000600883026115967fffffffffffffffffffffffffffffffffffffffffffffffffffffffffffffffff82611559565b6115a08683611559565b95508019841693508086168417925050509392505050565b6000819050919050565b60006115dd6115d86115d384610c80565b6115b8565b610c80565b9050919050565b6000819050919050565b6115f7836115c2565b61160b611603826115e4565b848454611566565b825550505050565b600090565b611620611613565b61162b8184846115ee565b505050565b5b8181101561164f57611644600082611618565b600181019050611631565b5050565b601f8211156116945761166581611534565b61166e84611549565b8101602085101561167d578190505b61169161168985611549565b830182611630565b50505b505050565b600082821c905092915050565b60006116b760001984600802611699565b1980831691505092915050565b60006116d083836116a6565b9150826002028217905092915050565b6116e982610ff3565b67ffffffffffffffff81111561170257611701610cd1565b5b61170c8254611503565b611717828285611653565b600060209050601f83116001811461174a5760008415611738578287015190505b61174285826116c4565b8655506117aa565b601f19841661175886611534565b60005b828110156117805784890151825560018201915060208501945060208101905061175b565b8683101561179d5784890151611799601f8916826116a6565b8355505b6001600288020188555050505b505050505050565b7f4e487b7100000000000000000000000000000000000000000000000000000000600052603260045260246000fd5b7f4e487b7100000000000000000000000000000000000000000000000000000000600052601160045260246000fd5b600061181b82610c80565b91507fffffffffffffffffffffffffffffffffffffffffffffffffffffffffffffffff820361184d5761184c6117e1565b5b60018201905091905056fea26469706673582212207ae59a189ca1cdca82ee7f71c8cee872b4d52ac523c51a48c390dd140e0f329c64736f6c63430008110033",
  "immutableReferences": {},
  "source": "// SPDX-License-Identifier: MIT\npragma solidity >=0.4.22 <0.9.0;\n\ncontract tender {\n\n  address[] _tenderowners;\n  uint[] _tenderids;\n  string[] _tenderinfos;\n  bool[] _tenderstates;\n  address[] _tenderbidders;\n\n  address[] _bidders;\n  uint[] _bidtenderids;\n  string[] _bidemails;\n  uint[] _bidamounts;\n\n  mapping(uint=>bool) tid;\n  mapping(address=>bool) bidders;\n  mapping(uint=>bool) tenderfinalids;\n\n  function createtender(address tenderowner,uint tenderid,string memory tenderinfo) public{\n    require(!tid[tenderid]);\n\n    tid[tenderid]=true;\n    _tenderowners.push(tenderowner);\n    _tenderids.push(tenderid);\n    _tenderinfos.push(tenderinfo);\n    _tenderstates.push(true);\n    _tenderbidders.push(tenderowner);\n  }\n\n  function viewtenders() public view returns(address[] memory,uint[] memory,string[] memory,bool[] memory,address[] memory){\n    return(_tenderowners,_tenderids,_tenderinfos,_tenderstates,_tenderbidders);\n  }\n\n  function gettender(uint tenderid) public view returns(address ,uint,string memory,bool,address){\n    require(tid[tenderid]);\n    uint i=0;\n    for(i=0;i<_tenderids.length;i++){\n      if(tenderid==_tenderids[i]){\n        return(_tenderowners[i],_tenderids[i],_tenderinfos[i],_tenderstates[i],_tenderbidders[i]);\n      }\n    }\n    return(msg.sender,0,\"NA\",false,msg.sender);\n  }\n\n  function bidtender(uint bidtenderid,uint bidamount,string memory bidemail) public{\n    _bidtenderids.push(bidtenderid);\n    _bidamounts.push(bidamount);\n    _bidemails.push(bidemail);\n    _bidders.push(msg.sender);\n  }\n\n  function viewbids() public view returns(uint[] memory,uint[] memory,string[] memory,address[] memory){\n    return(_bidtenderids,_bidamounts,_bidemails,_bidders);\n  }\n\n  function allocatetender(uint tenderid,address bidowner) public{\n    require(!tenderfinalids[tenderid]);\n    uint i=0;\n\n    tenderfinalids[tenderid]=true;\n    for(i=0;i<_tenderids.length;i++){\n      if(tenderid==_tenderids[i]){\n        _tenderstates[i]=false;\n        _tenderbidders[i]=bidowner;\n      }\n    }\n  }\n}\n",
  "sourcePath": "/Users/ms/Desktop/Smart-Tender-Management-System/contracts/tender.sol",
  "compiler": {
    "name": "solc",
    "version": "0.8.17+commit.8df45f5f.Emscripten.clang"
  },
  "schemaVersion": "3.4.8",
  "updatedAt": "2023-01-28T09:54:50.067Z",
  "networkType": "ethereum",
  "devdoc": {
    "kind": "dev",
    "methods": {},
    "version": 1
  },
  "userdoc": {
    "kind": "user",
    "methods": {},
    "version": 1
  }
}